:100000000C943B090C9457090C9457090C9457090C
:100010000C9457090C9457090C9457090C945709E0
:100020000C9457090C9457090C948C120C94EB12F5
:100030000C9457090C9457090C9457090C945709C0
:100040000C9457090C9457090C9457090C945709B0
:100050000C9457090C9457090C9457090C945709A0
:100060000C9457090C9457090C9457090C94570990
:100070000C9457090C9457090C9457090C94570980
:100080000C9457090C9457090C9457090C94570970
:100090000C9457090C9457090C9457090C94570960
:1000A0000C9457090C9457090C945709C50DCD0DA4
:1000B000D30DD90DDF0DE50DEB0DF10D200E220E48
:1000C000240E260E280E2A0E2C0E2E0E0000EF0EE9
:1000D000EF0EEF0EEF0EEF0EEF0EEF0EEF0EEF0E38
:1000E000EF0EEF0EEF0E0000EF0EEF0EEF0EEF0E25
:1000F000EF0E0000000000000000EF0EEF0EEF0E0C
:10010000EF0EEF0EA411EF0EEF0EEF0EEF0EEF0E4F
:10011000EF0EEF0EEF0EEF0EEF0EEF0EEF0EBC1127
:10012000D411EF0EEF0EEF0EEF0EEF0E00000000F9
:10013000EF0EEF0EEF0EEF0EEF0ED411EF0EEF0EEF
:10014000EF0EEF0EEF0EEF0EEF0EEF0EEF0EEF0EC7
:10015000EF0EEF0EEF0EEF0EEF0EEF0EEF0EEF0EB7
:10016000EF0EEF0EEF0EEF0EEF0EEF0EEF0EEF0EA7
:10017000EF0EEF0E0000EF0EEF0EEF0EEF0EEF0E94
:10018000EF0EEF0EEF0EEF0EEF0EEF0EEF0E000084
:10019000EF0EEF0EEF0EEF0EEF0E0000000000006E
:1001A0000000EF0EEF0EEF0EEF0EEF0E0000EF0E61
:1001B000EF0EEF0EEF0EEF0E880F880FEF0EEF0E23
:1001C000EF0EEF0EEF0E880FEA11EF0EEF0EEF0EAF
:1001D000EF0EEF0E00000000EF0EEF0EEF0EEF0E31
:1001E000EF0EEA11EF0EEF0EEF0EEF0EEF0EEF0E29
:1001F000880F880FEF0EEF0EEF0EEF0EEF0EEF0EE3
:10020000EF0EEF0EEF0E880FEF0EEF0EEF0EEF0E6C
:10021000EF0EEF0EEF0EEF0E1A10EF0E0000EF0EC6
:10022000EF0EEF0EEF0EEF0EEF0EEF0EEF0EEF0EE6
:10023000EF0EEF0EEF0E0000EF0EEF0EEF0EEF0ED3
:10024000EF0E0000000000000000EF0EEF0EEF0EBA
:10025000EF0EEF0EAD0FEF0EEF0EEF0EEF0EEF0EF7
:10026000AD0FAD0FEF0EEF0EEF0EEF0EEF0E000025
:100270000012EF0EEF0EEF0EEF0EEF0E000000007B
:10028000EF0EEF0EEF0EEF0EEF0E0012EF0EEF0E71
:10029000EF0EEF0EEF0EEF0EAD0FAD0FEF0EEF0EF8
:1002A000EF0EEF0EEF0EEF0EEF0EEF0EEF0EAD0FA7
:1002B000EF0EEF0EEF0EEF0EEF0EEF0EEF0EEF0E56
:1002C0004310EF0E00002C128C108C102C12151104
:1002D0002C122C122C122C128C108C102C120000B0
:1002E000EF0EEF0EEF0EEF0EEF0E0000000000001D
:1002F00000003611EF0EEF0EEF0EEF0E1612EF0E9E
:10030000EF0EEF0EEF0EEF0E8C108C10EF0EEF0EC7
:10031000EF0EEF0EEF0E16120000EF0EEF0EEF0EC7
:10032000EF0EEF0E00000000EF0EEF0EEF0EEF0EDF
:10033000EF0E0000EF0EEF0EEF0EEF0EEF0EEF0ED2
:100340008C108C10EF0EEF0EEF0EEF0EEF0EEF0E87
:10035000EF0EEF0EEF0EEF0E5F118C105F11EF0E30
:100360003611EF0EEF0EEF0EEF0E8C1000000000B6
:10037000EF0EEF0E00000000000000000000000083
:10038000EF0EEF0E00000000000000000000000073
:1003900000000000000000000000EF0EEF0EEF0E66
:1003A000EF0E000000000000EF0E0000EF0E000056
:1003B000000000000000EF0EEF0EEF0EEF0E000049
:1003C00000000000EF0EEF0EEF0E00000000000036
:1003D0000000EF0EEF0EEF0EEF0E00000000000029
:1003E000EF0EEF0EEF0E0000000000000000EF0E19
:1003F000EF0EEF0EEF0E0000000000000000000006
:10040000000000000000000000000000EF0EEF0EF2
:10041000EF0E0000000000000000000000000000DF
:1004200000000000000000000000000000000000CC
:1004300000000000000000000000000000000000BC
:1004400000000000000000000000000000000000AC
:10045000000000000000000000000000000000009C
:100750000000000000000000000000000000EF0E9C
:10076000EF0EEF0EEF0EEF0EEF0EEF0EEF0EEF0EA1
:10077000EF0EEF0EEF0E0000EF0EEF0EEF0EEF0E8E
:10078000EF0E0000000000000000EF0EEF0EEF0E75
:10079000EF0EEF0E9F11EF0EEF0EEF0EEF0EEF0EBE
:1007A000EF0EEF0EEF0EEF0EEF0EEF0EEF0EB71196
:1007B000CF11EF0EEF0EEF0EEF0EEF0E0000000068
:1007C000EF0EEF0EEF0EEF0EEF0ECF11EF0EEF0E5E
:1007D000EF0EEF0EEF0EEF0EEF0EEF0EEF0EEF0E31
:1007E000EF0EEF0EEF0EEF0EEF0EEF0EEF0EEF0E21
:1007F000EF0EEF0EEF0EEF0EEF0EEF0EEF0EEF0E11
:10080000EF0EEF0E0000EF0EEF0EEF0EEF0EEF0EFD
:10081000EF0EEF0EEF0EEF0EEF0EEF0EEF0E0000ED
:10082000EF0EEF0EEF0EEF0EEF0E000000000000D7
:100830000000EF0EEF0EEF0EEF0EEF0E0000EF0ECA
:10084000EF0EEF0EEF0EEF0E480F480FEF0EEF0E0C
:10085000EF0EEF0EEF0E480FE311EF0EEF0EEF0E5F
:10086000EF0EEF0E00000000EF0EEF0EEF0EEF0E9A
:10087000EF0EE311EF0EEF0EEF0EEF0EEF0EEF0E99
:10088000480F480FEF0EEF0EEF0EEF0EEF0EEF0ECC
:10089000EF0EEF0EEF0E480FEF0EEF0EEF0EEF0E16
:1008A000EF0EEF0EEF0EEF0ED20FEF0E0000EF0E79
:1008B000EF0EEF0EEF0EEF0EEF0EEF0EEF0EEF0E50
:1008C000EF0EEF0EEF0E0000EF0EEF0EEF0EEF0E3D
:1008D000EF0E0000000000000000EF0EEF0EEF0E24
:1008E000EF0EEF0E680FEF0EEF0EEF0EEF0EEF0EA6
:1008F000680F680FEF0EEF0EEF0EEF0EEF0E000019
:10090000F911EF0EEF0EEF0EEF0EEF0E00000000EC
:10091000EF0EEF0EEF0EEF0EEF0EF911EF0EEF0EE2
:10092000EF0EEF0EEF0EEF0E680F680FEF0EEF0EEB
:10093000EF0EEF0EEF0EEF0EEF0EEF0EEF0E680F55
:10094000EF0EEF0EEF0EEF0EEF0EEF0EEF0EEF0EBF
:10095000F60FEF0E000025126C106C102512A91076
:1009600025122512251225126C106C10251200007C
:10097000EF0EEF0EEF0EEF0EEF0E00000000000086
:100980000000CD10EF0EEF0EEF0EEF0E0F12EF0E78
:10099000EF0EEF0EEF0EEF0E6C106C10EF0EEF0E71
:1009A000EF0EEF0EEF0E0F120000EF0EEF0EEF0E38
:1009B000EF0EEF0E00000000EF0EEF0EEF0EEF0E49
:1009C000EF0E0000EF0EEF0EEF0EEF0EEF0EEF0E3C
:1009D0006C106C10EF0EEF0EEF0EEF0EEF0EEF0E31
:1009E000EF0EEF0EEF0EEF0EF1106C10F110EF0E98
:1009F000CD10EF0EEF0EEF0EEF0E6C1000000000AA
:100A0000EF0EEF0E000000000000000000000000EC
:100A1000EF0EEF0E000000000000000000000000DC
:100A200000000000000000000000EF0EEF0EEF0ECF
:100A3000EF0E000000000000EF0E0000EF0E0000BF
:100A4000000000000000EF0EEF0EEF0EEF0E0000B2
:100A500000000000EF0EEF0EEF0E0000000000009F
:100A60000000EF0EEF0EEF0EEF0E00000000000092
:100A7000EF0EEF0EEF0E0000000000000000EF0E82
:100A8000EF0EEF0EEF0E000000000000000000006F
:100A9000000000000000000000000000EF0EEF0E5C
:100AA000EF0E160F00000000000000000000000024
:100AB0000000000000000000000000000000000036
:100AC0000000000000000000000000000000000026
:100AD0000000000000000000000000000000000016
:100AE0000000000000000000000000000000000006
:100DE000000000000000000000000000004E4C2A3F
:100DF0004B4A4D504F522C285100E0E3E23334006F
:100E00000000002D2FE2E7E4011D1B0619053B3D04
:100E10000D103637380203041617090A00000B11AB
:100E2000081230032B141A07150E3A3C1C180C0F2D
:100E30001365291E1F2021223564232425262749D6
:100E4000004E4C2A4B4A4D504F522C285100E0E3A3
:100E5000E23334000000002D2FE2E7E4001D1B0602
:100E600019053F410D103637383904041617090AA1
:100E700000000B11081230042B141A07150E3E4007
:100E80001C180C0F1365291E1F32212235642324E0
:100E900025262D49004E4C2A4B4A4D504F522C28A6
:100EA0005100E0E3E23334000000002D2FE2E7E4DC
:100EB000391D1B0619053F410D1036373800040453
:100EC0001617090A00000B11081230042B141A0718
:100ED000150E3E401C180C0F1365291E1F322122CF
:100EE0003564232425262D4900064C2A0546040195
:100EF00000032C280200E0E3E23334000000002766
:100F00002FE2E7E4041D1B06190543450D10363793
:100F1000380400041617090A00000B1108123000EB
:100F20002B141A07150E42441C180C0F1365291EAA
:100F30001F20202E2E6432242526274800004C2A0C
:100F40000000000000002C2800000000000000004D
:100F5000000000626263580000004D004E00000077
:100F600000595A5B5800000050514F000000005CCF
:100F70005D5E570000004A524B000000005F606158
:100F8000570000000000000000000000545556000B
:100F90000000000000000000000000000000000051
:100FA0000000000000000000000000000000000041
:100FB0000000000000000000000000000000000031
:100FC0000000000000000000000000000000000021
:100FD0000000000000000000000000000000000011
:100FE0000000000000000000000000000000000001
:100FF00000000000000000000000000000000000F1
:1010000000000000000000000000000000000000E0
:1010100000000000000000000000000000000000D0
:1010200000000000000000000000000000000000C0
:1010300000000000000000000000000000000000B0
:1010400000000000000000000000000000000000A0
:101050000000000000000000000000000000000090
:101060000000000000000000000000000000000080
:101070000000000000000000000000000000000070
:101080000000000000000000000000000000000060
:101090000000000000000000000000000000000050
:1010A0000000000000000000000000000000000040
:1010B0000000000000000000000000000000000030
:1010C0000000000000000000000000000000000020
:1010D0000000000000000000000000000000000010
:1010E0000000000000000000000000000000000000
:1010F00000000000000000000000000000000000F0
:1011000000000000000000000000000000000000DF
:1011100000000000000000000000000000000000CF
:1011200000000000000000000000000000000000BF
:1011300000000000000100007A1112000200008C83
:10114000113B002100009E110900220000C7113F41
:1011500000210100B7110900220100061219000345
:1011600000001F12040103090423121802030904DA
:101170003D123601C10601C1060012010002000045
:101180000020501D286000010102000109023B00FF
:10119000020100C03209040000010301010009211D
:1011A00011010001223F000705810308000A09041C
:1011B00001000103000000092111010001221900B2
:1011C0000705820308000A05010906A101750195BA
:1011D00008050719E029E715002501810295017529
:1011E00008810395057501050819012905910295E6
:1011F0000175039103950675081500256805071903
:101200000029688100C0050C0901A10185031501B1
:10121000269C0219012A9C02751095018100C004C8
:10122000030904180375006E007300700065006305
:10123000006900660069006500640000003603452F
:1012400000720067006F0044006F007800200065A6
:1012500000720067006F006E006F006D0069006330
:101260000020006B006500790062006F0061007271
:1012700000640000000011241FBECFEFDAE0DEBFE3
:10128000CDBF11E0A0E0B1E0E0E7F9E202C00590D7
:101290000D92A832B107D9F712E0A8E2B1E001C07F
:1012A0001D92A837B107E1F743D00C94B6140C9403
:1012B0000000209170028091730290914602E091AB
:1012C0004502222381F02EE0E29FF001112424E563
:1012D000929FE00DF11D1124E80FF11DEE0FFF1F8D
:1012E000E45AF84F0FC02EE0E29FF001112424E5EC
:1012F000929FE00DF11D1124E80FF11DEE0FFF1F6D
:10130000E453FF4F85919491009711F0FC010994EB
:101310000895E0912801E81748F0F0E0E81BF10992
:10132000EE0FFF1FE95BFD4F8081089580E0089577
:101330002CD18CE090E0909389008093880090936A
:101340008B0080938A0090938D0080938C00259A67
:10135000269A279A0E9438120E944F128823E1F39E
:101360008FE790E090938900809388002FE782E4D4
:1013700090E1215080409040E1F700C000008FE7ED
:1013800090E090938B0080938A002FE782E490E1B5
:10139000215080409040E1F700C000008FE790E0CE
:1013A00090938D0080938C002FE782E490E1215090
:1013B00080409040E1F700C00000259826982798CB
:1013C0008FE790E0909389008093880090938B0042
:1013D00080938A0090938D0080938C003EE0F32EE2
:1013E00080911401909115012091160130911701FF
:1013F00030931501209314019093170180931601E7
:10140000D0D01092F0018091F001863008F040C0F9
:1014100010927102009171021091F0010E30A0F54E
:10142000E0911601F0911701F19EC0011124800F87
:10143000911DE80FF91F208120937002E0911401A3
:10144000F0911501E80FF91F308130936F022317D7
:10145000A9F0EC01CF50DE4F222331F080E059DFBC
:1014600080934602888303C088818093460210934C
:10147000450200937302109272021BDF8091710289
:101480008F5F80937102C6CF1F5F1093F001BBCFB7
:101490000E9452120E9492148FE19EE40197F1F78C
:1014A00000C000008091EC0180FF02C0259A01C0BD
:1014B00025988091EC0181FF02C0269A01C02698F0
:1014C0008091EC0182FF02C0279A01C02798809189
:1014D000EC018091EC0184CFE1E0F1E021E030E02B
:1014E0009191911113C0F901E050FF4F91E0908369
:1014F000E0912801EF5FE0932801F0E0EE0FFF1F7D
:10150000E95BFD4F80832183822F08952F5F3F4F3A
:101510002431310529F780E00895CF93DF9320919E
:10152000280191E0C82FD0E0C050DF4F291740F1CB
:10153000E92FF0E0EE0FFF1FE95BFD4F318138131B
:101540001DC0E92FF0E0921781F0DF01AA0FBB1F49
:10155000A75BBD4F3C91EE0FFF1FE95BFD4F308352
:1015600011963C9131839F5FECCFEE0FFF1FE95B3B
:10157000FD4F1082118218822FEF290F9F5FD6CF67
:1015800020932801DF91CF910895C1D0882329F4B9
:101590001AD0882321F082E0089581E0089580E048
:1015A0000895CF93DF93EC017BD1882331F4CE01F2
:1015B00035D0882321F082E003C081E001C080E0C3
:1015C000DF91CF9108951F937CD380E49BD3182F94
:1015D000882301F580E096D380E894D38FEF92D3EF
:1015E00089D36FD380E48ED3182F882399F48CE0AD
:1015F00089D380E887D38FEF85D37CD362D380E40F
:1016000081D3182F882331F484E17CD38FEF7AD3F0
:101610008FEF78D36FD3812F1F9108959F92AF9250
:10162000BF92CF92DF92EF92FF920F931F93DF93BF
:10163000CF930F92CDB7DEB77C01C5DF982E8823FC
:1016400071F0F70186E010821182128213821482F7
:101650001582168281503E968823A9F74AC000E081
:1016600010E081E0C82ED12C5E010894A11CB11CB1
:1016700028D380E447D382E145D3C601002E02C0BF
:10168000880F991F0A94E2F780953CD333D319D37E
:1016900080E438D383E136D314D381E433D3C50156
:1016A00051D328D3498150E0F701E00FF11F25E025
:1016B00030E0CA01022E02C0959587950A94E2F7A0
:1016C00061E080FD60E06083215030403E968FEF06
:1016D0002F3F380771F70F5F1F4F0730110509F0D3
:1016E000C7CFEFD280E40ED382E10CD38FEF0AD3C1
:1016F00001D3892D0F90CF91DF911F910F91FF9012
:10170000EF90DF90CF90BF90AF909F900895E1E66B
:10171000F0E080E88083108256985E9824982C9898
:1017200025982698279889EA8093800089E08093FD
:101730008100BED23F9885E08A95F1F70000579866
:1017400085E08A95F1F70000549885E08A95F1F7D5
:101750000000559885E08A95F1F700006E9885E0C5
:101760008A95F1F70000479A85E08A95F1F7000025
:101770005F9A85E08A95F1F700005C9A85E08A958A
:10178000F1F700005D9A85E08A95F1F70000769AFE
:1017900085E08A95F1F70000879885E08A95F1F752
:1017A0000000869885E08A95F1F70000859885E02D
:1017B0008A95F1F70000849885E08A95F1F700009A
:1017C000819885E08A95F1F70000809885E08A95F8
:1017D000F1F70000209885E08A95F1F70000219844
:1017E00085E08A95F1F70000229885E08A95F1F767
:1017F0000000239885E08A95F1F70000529885E073
:101800008A95F1F70000539885E08A95F1F700007A
:101810003E9885E08A95F1F700008F9A85E08A95D9
:10182000F1F700008E9A85E08A95F1F700008D9A15
:1018300085E08A95F1F700008C9A85E08A95F1F7AA
:101840000000899A85E08A95F1F70000889A85E082
:101850008A95F1F70000289885E08A95F1F7000055
:10186000299885E08A95F1F700002A9885E08A9505
:10187000F1F700002B9885E08A95F1F700005A985F
:1018800085E08A95F1F700005B9885E08A95F1F78D
:101890000000469885E08A95F1F7000080E0089501
:1018A0000F931F93CF93DF93FC01209A65E06A9515
:1018B000F1F700008FB18095881F8827881F8783E4
:1018C000AF01425F5F4F81E07E9980E0DA011796B9
:1018D0008C9317979F01245E3F4F81E07D9980E0B4
:1018E000D90117968C931797CF018A9661E07C995E
:1018F00060E0DC0117966C931797EF01E89661E0C2
:10190000799960E06F838F010A5B1F4F61E07899DE
:1019100060E0D80117966C9317972098B5E0BA95B8
:10192000F1F70000219A65E06A95F1F700006FB1C8
:101930006095661F6627661F608761E07E9960E09C
:10194000DA0118966C93189761E07D9960E0D901EF
:1019500018966C93189761E07C9960E0DC0118960A
:101960006C93189761E0799960E0688761E07899F5
:1019700060E0D80118966C9318972198B5E0BA9555
:10198000F1F70000229A65E06A95F1F700006FB167
:101990006095661F6627661F618761E07E9960E03B
:1019A000DA0119966C93199761E07D9960E0D9018D
:1019B00019966C93199761E07C9960E0DC011996A7
:1019C0006C93199761E0799960E0698761E0789993
:1019D00060E0D80119966C9319972298B5E0BA95F2
:1019E000F1F70000239A65E06A95F1F700006FB106
:1019F0006095661F6627661F628761E07E9960E0DA
:101A0000DA011A966C931A9761E07D9960E0D9012A
:101A10001A966C931A9761E07C9960E0DC011A9643
:101A20006C931A9761E0799960E06A8761E0789930
:101A300060E0D8011A966C931A972398B5E0BA958E
:101A4000F1F70000529A65E06A95F1F700006FB176
:101A50006095661F6627661F638761E07E9960E078
:101A6000DA011B966C931B9761E07D9960E0D901C8
:101A70001B966C931B9761E07C9960E0DC011B96E0
:101A80006C931B9761E0799960E06B8761E07899CE
:101A900060E0D8011B966C931B975298B5E0BA95FD
:101AA000F1F70000539A65E06A95F1F700006FB115
:101AB0006095661F6627661F648761E07E9960E017
:101AC000DA011C966C931C9761E07D9960E0D90166
:101AD0001C966C931C9761E07C9960E0DC011C967D
:101AE0006C931C9761E0799960E06C8761E078996C
:101AF00060E0D8011C966C931C975398B5E0BA959A
:101B0000F1F700003E9A65E06A95F1F700006FB1C9
:101B10006095661F6627661F658761E07E9960E0B5
:101B2000DA011D966C931D9741E07D9940E0F90123
:101B3000458721E07C9920E0DC011D962C931D97C0
:101B400081E0799980E08D8781E0789980E0F801E3
:101B500085873E98F5E0FA95F1F7000080E0DF9187
:101B6000CF911F910F910895962F662309F45AC0C3
:101B7000462F50E0FA01E05EF109E830F105B8F5D2
:101B8000EA5AFF4F9091E501EBC6882311F091606E
:101B900001C09E7F9093E5010895882311F0926023
:101BA000F9CF9D7FF7CF882311F09460F3CF9B7F0F
:101BB000F1CF882311F09860EDCF977FEBCF88238A
:101BC00011F09061E7CF9F7EE5CF882311F09062FE
:101BD000E1CF9F7DDFCF882311F09064DBCF9F7B27
:101BE000D9CF882311F09068D5CF9F77D3CFE6EE79
:101BF000F1E020E030E04081882339F041110CC051
:101C0000F901EA51FE4F90830895491305C0F90187
:101C1000EA51FE4F108208952F5F3F4F31962630D4
:101C2000310549F70895482F50E0FA01E05EF109C7
:101C3000E830F105A8F4E25AFF4F9091E50190C613
:101C400090FD19C091FD17C092FD15C093FD13C002
:101C500094FD11C095FD0FC096FD0DC097FD0BC002
:101C6000E6EEF1E09191981731F091E0EC3EF90742
:101C7000C9F780E0089581E00895E62FF0E0EE0FC7
:101C8000FF1FE65EFE4F20813181882329F03093CB
:101C900075022093740208958091740290917502E8
:101CA0002817390721F410927502109274020895D2
:101CB000E9EBF0E080818C7F808388E48093B8003A
:101CC000089584EA8093BC008091BC0087FFFCCF1C
:101CD0008091B900887F883049F08091B900887F71
:101CE000803131F08091B900887F089580E00895B7
:101CF00080E0089584E98093BC008091BC0084FD5D
:101D0000FCCF08958093BB0084E88093BC00809151
:101D1000BC0087FFFCCF8091B900887F883171F0CB
:101D20008091B900887F883249F08091B900887F1E
:101D3000803431F08091B900887F089580E0089563
:101D400080E0089524EC2093BC002091BC0027FF84
:101D5000FCCF2091BB00FC0120838091B900887FDB
:101D6000803521F08091B900887F089580E0089542
:101D7000CF93DF93C82FD0E0CC0FDD1FCF52DE4FC3
:101D80008881CBDB19821882DF91CF9108951F9350
:101D9000CF93DF939091730220914602E091450228
:101DA0003EE0E39FF001112434E5239FE00DF11D97
:101DB0001124E90FF11DE451F24F1491C82FD0E026
:101DC000CC0FDD1FCF52DE4F8881A7DB812F84DB54
:101DD00090E099838883DF91CF911F91089580913E
:101DE000730290914602E09145022EE0E29FF001DD
:101DF000112424E5929FE00DF11D1124E80FF11D3F
:101E0000E451F24F649180917002AECE81E0BFCF79
:101E100081E0AECF82E0BBCF82E0AACF83E0B7CF34
:101E200083E0A6CF84E0B3CF84E0A2CFF89481E032
:101E30008093E00080E28093D8001092C9008FE187
:101E40009EE40197F1F700C000001DBA10926800EF
:101E50001CBC10BE1FBA10927A0010926E00109235
:101E60006F0010927100109272001092C900ECEB9A
:101E7000F0E0108214B817B81AB81DB810BA108262
:101E800015B818B81BB81EB811BA0C94003F0895C5
:101E9000CF938091730290914602E09145022EE02B
:101EA000E29FF001112424E5929FE00DF11D112421
:101EB000E80FF11DE451F24FC4919091700261EE70
:101EC00081E0892751DE6C2F80917002CF914CCE3A
:101ED000CF938091730290914602E09145022EE0EB
:101EE000E29FF001112424E5929FE00DF11D1124E1
:101EF000E80FF11DE451F24FC4919091700265EE2C
:101F000081E0892731DE6C2F80917002CF912CCE39
:101F10008091730290914602E09145022EE0E29F8B
:101F2000F001112424E5929FE00DF11D1124E80F2A
:101F3000F11DE451F24F64918091700215DE81EE43
:101F400072DE882321F061EE8091700205C09091CD
:101F5000700261EE81E0892707CE80917302909133
:101F60004602E09145022EE0E29FF001112424E5B3
:101F7000929FE00DF11D1124E80FF11DE451F24F85
:101F8000649180917002F0DD85EE4DDE882321F0B2
:101F900065EE8091700205C09091700265EE81E05F
:101FA0008927E2CDCF938091730290914602E09110
:101FB00045022EE0E29FF001112424E5929FE00DFE
:101FC000F11D1124E80FF11DE451F24FC4919091DD
:101FD000700261EE81E08927C7DD66EE80917002B4
:101FE000C3DD6C2F80917002CF91BECDCF938091D5
:101FF000730290914602E09145022EE0E29FF001CB
:10200000112424E5929FE00DF11D1124E80FF11D2C
:10201000E451F24FC4919091700265EE81E08927FE
:10202000A3DD66EE809170029FDD6C2F80917002BF
:10203000CF919ACD8091730290914602E091450232
:102040002EE0E29FF001112424E5929FE00DF11DA6
:102050001124E80FF11DE451F24F64918091700258
:1020600083DD66EE809170027FDD81EEDCDD88230A
:1020700021F061EE8091700205C09091700261EED6
:1020800081E0892771CD8091730290914602E091A1
:1020900045022EE0E29FF001112424E5929FE00D1D
:1020A000F11D1124E80FF11DE451F24F649180916C
:1020B00070025ADD66EE8091700256DD85EEB3DD6A
:1020C000882321F065EE8091700205C09091700226
:1020D00065EE81E0892748CDCF938091730290917E
:1020E0004602E09145022EE0E29FF001112424E532
:1020F000929FE00DF11D1124E80FF11DE451F24F04
:10210000C4919091700266EE81E089272DDD6C2FDD
:1021100080917002CF9128CD8091730290914602F8
:10212000E09145022EE0E29FF001112424E5929F08
:10213000E00DF11D1124E80FF11DE451F24F6491FF
:102140008091700211DD9091700266EE81E0892726
:102150000BCDCF938091730290914602E09145029E
:102160002EE0E29FF001112424E5929FE00DF11D85
:102170001124E80FF11DE451F24FC49190917002C7
:1021800066EE81E08927F0DC62EE80917002ECDC83
:102190006C2F80917002CF91E7CCCF938091730226
:1021A00090914602E09145022EE0E29FF001112459
:1021B00024E5929FE00DF11D1124E80FF11DE4517B
:1021C000F24FC4919091700266EE81E08927CCDCD9
:1021D00061EE80917002C8DC6C2F80917002CF910B
:1021E000C3CCCF938091730290914602E091450257
:1021F0002EE0E29FF001112424E5929FE00DF11DF5
:102200001124E80FF11DE451F24FC4919091700236
:1022100066EE81E08927A8DC65EE80917002A4DC7F
:102220006C2F80917002CF919FCC8091730290911E
:102230004602E09145022EE0E29FF001112424E5E0
:10224000929FE00DF11D1124E80FF11DE451F24FB2
:1022500064918091700288DC62EE8091700284DC6F
:102260009091700266EE81E089277ECC80917302A6
:1022700090914602E09145022EE0E29FF001112488
:1022800024E5929FE00DF11D1124E80FF11DE451AA
:10229000F24F64918091700267DC61EE8091700270
:1022A00063DC86EEC0DC882321F066EE809170024C
:1022B00005C09091700266EE81E0892755CC80912F
:1022C000730290914602E09145022EE0E29FF001F8
:1022D000112424E5929FE00DF11D1124E80FF11D5A
:1022E000E451F24F6491809170023EDC65EE809182
:1022F00070023ADC86EE97DC882321F066EE80914E
:10230000700205C09091700266EE81E089272CCCA6
:102310008091730290914602E09145022EE0E29F87
:10232000F001112424E5929FE00DF11D1124E80F26
:10233000F11DE451F24F6491809170029ECC66DDF4
:1023400061EE8091700210CC81EE6DDC882341F04B
:1023500086EE69DC811104C061EE8091700205C0D7
:102360009091700261EE81E08927FEDB51CD52DD54
:1023700065EE80917002F8CB85EE55DC882341F044
:1023800086EE51DC811104C065EE8091700205C0BB
:102390009091700265EE81E08927E6DB3DCD3EDD60
:1023A00066EE80917002E0CB86EE3DDC882321F062
:1023B00066EE8091700205C09091700266EE81E039
:1023C0008927D2DB2DCD9091700261EE81E08927C3
:1023D000CBDB28CD29DD81EE26DC811106C0909172
:1023E000700261EE81E0892703C061EE8091700286
:1023F000BBCB9091700265EE81E08927B5DB12CDF1
:1024000013DD85EE10DC811106C09091700265EE3F
:1024100081E0892703C065EE80917002A5CB909181
:10242000700266EE81E089279FDBFCCCFDDC86EE46
:10243000FADB811106C09091700266EE81E0892777
:1024400003C066EE809170028FCB9091700266EEB1
:1024500081E0892789DB5CCF5BDF9091700266EEBB
:1024600081E0892781CB8091E80080FFFCCF08952F
:1024700081E08093D70080EA8093D80082E189BD13
:1024800009B400FEFDCF80E98093D8001092E000EF
:102490001092ED018CE08093E20078940895809191
:1024A000ED0108958091ED01882391F18FB7F894A3
:1024B00091E09093E9009091E4009E5C21E03091DE
:1024C000E80035FD0EC08FBF8091ED01882301F13A
:1024D0008091E4008917F1F08FB7F8942093E90018
:1024E000EECF9091E5019093F1001092F100E6EEAD
:1024F000F1E091919093F10091E0EC3EF907C9F77A
:102500009AE39093E8001092EE018FBF80E0089567
:102510008FEF08958FEF08951F920F920FB60F92CD
:1025200011242F938F939F93EF93FF938091E1005A
:102530001092E10083FF0FC01092E90091E09093A8
:10254000EB001092EC0092E29093ED0098E09093F3
:10255000F0001092ED0182FF34C08091ED018823DC
:1025600081F120911801222361F18091EF018F5FA9
:102570008093EF0190E083709070009711F581E0F7
:102580008093E9008091E80085FF1BC08091EE01F7
:102590008F5F8093EE018217A1F41092EE0180917B
:1025A000E5018093F1001092F100E6EEF1E08191F7
:1025B0008093F10081E0EC3EF807C9F78AE380934D
:1025C000E800FF91EF919F918F912F910F900FBE97
:1025D0000F901F9018951F920F920FB60F92112413
:1025E000CF92DF92EF92FF920F931F932F933F931F
:1025F0004F935F936F937F938F939F93AF93BF930B
:10260000EF93FF93DF93CF930F92CDB7DEB7109286
:10261000E9008091E80083FF39C12091F1003091F9
:10262000F1008091F100C82EDD244091F100942F3B
:1026300080E0C82AD92A0091F10010E04091F10011
:10264000942F80E0082B192B6091F100A091F100EC
:1026500082EF8093E800363009F059C08BE391E1B6
:102660009C0125503040FC013797459154914C1501
:102670005D05F9F4F9014591549140175107C9F4EA
:102680002E5F3F4FF901859194912E5F3F4FF901E5
:102690002491462F50E07A2F60E0462B572B4F3F76
:1026A000510519F010F04FEF50E0421750F4242F6D
:1026B00008C00796295F3F4FF1E18A379F0799F6D7
:1026C000E5C0AEEF4091E80050E0BA01657070706F
:1026D00061157105B9F342FDDCC0322F213208F0DB
:1026E00030E2AC01632F07C0FA014F5F5F4FE49106
:1026F000E093F10061506623B9F7830F911D231B0E
:10270000A093E8002223F1F63032E1F2C2C0353066
:1027100049F48EEF8093E800A6DE8C2D80688093CC
:10272000E300B7C0393031F5222309F069C0C09207
:10273000ED018EEF8093E80041E083E791E1409363
:10274000E900FC010196E491E093EB00EE2369F0CF
:102750009C012F5F3F4FFC0184918093EC00C901E5
:102760000196F90124912093ED004F5F453039F730
:102770008EE141C0383039F4203809F041C073DEB1
:102780008091ED0161C03323A9F429836CDE298196
:10279000223851F40093E9009091EB0081E095FF1D
:1027A00080E01092E90001C080E08093F100109277
:1027B000F10068C0313011F0333011F5223001F5ED
:1027C000C114D104E9F4402F4F77842F8150843015
:1027D000B8F48EEF8093E8004093E900333009F4B9
:1027E00055C089E18093EB0081E090E002C0880F42
:1027F000991F4A95E2F78093EA001092EA0049C0D7
:102800000115110509F042C0213A09F5313089F46A
:102810002ADE8091E5018093F1001092F100E6EE4E
:10282000F1E081918093F10021E0EC3EF207C9F7DD
:1028300029C0323021F417DE8091180105C03330F1
:1028400029F511DE809119018093F1001BC021321E
:10285000E9F4393061F48091E80082FFFCCF809187
:10286000F1008093EC018BEF8093E8000BC03A30CD
:1028700029F4D09218011092EE0104C03B3031F4DB
:10288000C09219018EEF8093E80003C081E280932B
:10289000EB000F90CF91DF91FF91EF91BF91AF913E
:1028A0009F918F917F916F915F914F913F912F9168
:1028B0001F910F91FF90EF90DF90CF900F900FBE80
:1028C0000F901F9018959091ED01992339F19FB7C2
:1028D000F89422E02093E9002091E4002E5C32E09D
:1028E0004091E80045FD0EC09FBF9091ED019923F6
:1028F000A9F09091E400921799F09FB7F894309363
:10290000E900EECF8093F1006093F1007093F10045
:102910008AE38093E8009FBF80E008958FEF0895D9
:102920008FEF089560917402709175028091760224
:10293000909177026817790781F083E0C4DF9927C7
:1029400087FD9095009759F420917402309175029B
:102950003093770220937602089580E090E0089506
:10296000EE0FFF1F0590F491E02D0994F894FFCF2E
:102970000100000000000000000000000000000056
:102980000000000029017D017D01B500B600B700FF
:08299000CD00E200E900EA00BD
:00000001FF
